:020000040800F2
:10000000100600209D010008F7110008A11100084A
:10001000F5110008D5020008B5190008000000001D
:10002000000000000000000000000000C5130008F0
:10003000D70200080000000019120008C7130008CA
:10004000B7010008B7010008B7010008B7010008B0
:10005000B7010008B7010008B7010008B7010008A0
:10006000B7010008B7010008B7010008B701000890
:10007000B7010008B7010008B7010008B701000880
:10008000B7010008B7010008B7010008B701000870
:10009000B7010008B7010008B7010008B701000860
:1000A000B7010008B7010008B7010008B701000850
:1000B00091140008B7010008B7010008B701000853
:1000C000B7010008B7010008B7010008B701000830
:1000D000B7010008911900089D190008A919000826
:1000E000B7010008B7010008B7010008B701000810
:1000F000B7010008B7010008B7010008B701000800
:10010000B7010008B7010008B7010008B7010008EF
:10011000B7010008B7010008B7010008B7010008DF
:10012000B7010008B7010008B7010008B7010008CF
:10013000B7010008B7010008B7010008B7010008BF
:10014000B7010008B7010008B7010008B7010008AF
:10015000B7010008B7010008B7010008B70100089F
:10016000B7010008B7010008B7010008B70100088F
:10017000B7010008B7010008B7010008000000003F
:10018000B7010008B7010008DFF80CD000F090F8C4
:10019000004800474D1D0008100600200648804713
:1001A00006480047FEE7FEE7FEE7FEE7FEE7FEE75C
:1001B000FEE7FEE7FEE7FEE73D14000889010008C0
:1001C0002DE9F05F0546002092469B46884606468C
:1001D000814640241BE0284641464746224600F01F
:1001E00057F853465A46C01A914110D31146184643
:1001F000224600F03EF82D1A67EB01084F462246D2
:100200000120002100F035F817EB00094E41201EB7
:10021000A4F10104DFDC484631462A464346BDE8E6
:10022000F09FD2B201E000F8012B491EFBD27047CB
:100230000022F6E710B513460A4604461946FFF7B2
:10024000F0FF204610BD30B50B46014600202022AD
:10025000012409E021FA02F59D4205D303FA02F5D3
:10026000491B04FA02F52844151EA2F10102F1DC33
:1002700030BD202A04DB203A00FA02F1002070474A
:100280009140C2F1200320FA03F3194390407047D4
:10029000202A04DB203A21FA02F00021704721FADB
:1002A00002F3D040C2F12002914008431946704742
:1002B000064C074D06E0E06840F0010394E80700B3
:1002C00098471034AC42F6D3FFF762FF4C1E00088B
:1002D0006C1E0008FEE7704790F83510022903D025
:1002E0008021416501207047052180F835100068A4
:1002F000016821F001010160002070472DE9F84FED
:10030000DFF87CB100224FF001084FF0030A4FF0F4
:100310000F090BF1040E00BF0B6808FA02F423402A
:10032000A3426ED14D68022D01D0122D0ED1D508F9
:1003300000EB850CDCF820505607F70E09FA07F69B
:10034000B5430E69BE402E43CCF8206006685500C8
:100350000F790AFA05FC07F0030726EA0C06AF40FE
:10036000374307604E68012E05D0022E03D0112EB0
:1003700001D0122E0ED18668CF6826EA0C06AF4057
:10038000374387604668A6430C79C4F30014944051
:1003900034434460C6688C6826EA0C06AC4034439B
:1003A000C4604C68E40065D5364C256845F480454A
:1003B0002560246822F0030504F480440094324C44
:1003C0002E19D6F8084895072F0F09FA07F5AC4300
:1003D0002E4DA84201D1002524E02D4DA84201D187
:1003E00001251FE02B4DA84201D102251AE02A4D1C
:1003F000A84201D1032515E0284DA84202D10425C9
:1004000010E037E0264DA84201D105250AE0254D30
:10041000A84201D1062505E0234DA84201D10725B8
:1004200000E00825BD402543C6F80858DBF8004029
:100430005D464E689C43F60300D51C432C60DEF8F5
:10044000004075464E689C43B60300D51C432C60A3
:100450000B4D08352C684E689C43F60200D51C43B2
:100460002C60074D0C352C684E689C43B60200D5B5
:100470001C432C60521C102AFFF44EAFBDE8F88FCD
:10048000003C01404438024000300140000002407E
:100490000004024000080240000C0240001002402C
:1004A0000014024000180240001C0240014880680D
:1004B000704700001400002002488168027811444F
:1004C00081607047140000200B4810B5016841F4AA
:1004D00000710160016841F480610160016841F4CC
:1004E00080710160032000F06DF8002000F006F834
:1004F00000F024F8002010BD003C024070B50D4D06
:1005000004464FF47A712878B1FBF0F00A49096883
:10051000B1FBF0F000F0E0FA48B9102C07D200224D
:100520002146501E00F02EF800206C6070BD0120A6
:1005300070BD000014000020200000200A4808B50B
:10054000016841F480410160006800F4804000903F
:100550000548001F016841F080510160006800F00B
:100560008050009008BD00004438024000F01F0297
:10057000012191404009800000F1E020C0F8001105
:1005800070470000F0B40E4B1B680C46C3F3022307
:10059000C3F10705042D00D90425191D072901D22F
:1005A000002300E0DB1E012606FA05F1491E21406A
:1005B00099409E40761E16403143F0BC00F01CBEB0
:1005C0000CED00E0064900F0070208684FF6FF0353
:1005D000184040EA0220034A1043086070470000B8
:1005E0000CED00E00000FA052DE9F0470E4605008D
:1005F00065D0DFF81481D8F80000F7B200F00F00E2
:10060000B04207D288F80070D8F8000000F00F0060
:10061000B04254D128683D4C810712D5400703D51C
:10062000206840F4E05020602878000703D5206857
:1006300040F4604020602068A96820F0F000084382
:1006400020602878C0072DD0304968680839012813
:1006500012D0022813D0032811D009688907002975
:100660002DDA216821F0030101432160FFF71EFF0D
:10067000814641F2883A0EE009688903EFE709688C
:100680008901ECE7FFF712FFA0EB0901514502D900
:100690000320BDE8F0872068696800F00C00B0EB2B
:1006A000810FEFD1D8F80010404601F00F01B142A0
:1006B00007D90770006800F00F00B04201D0012098
:1006C000E7E72878400705D52068E96820F4E0507E
:1006D000084320602878000706D52068296920F49F
:1006E000604040EAC100206000F036F82168084A06
:1006F000C1F30311515CC840064908600020FFF7B0
:10070000FDFE0020C5E70000003C02400838024022
:10071000341E0008200000200448054900680968CC
:10072000044AC1F38221515CC84070472000002078
:1007300008380240441E000804480549006809685A
:10074000044AC1F34231515CC84070472000002088
:1007500008380240441E0008154810B5006810F023
:100760000C02144813D01449042A0FD0082A0ED1C1
:100770000F4C241F2268236802F03F025B0207D55A
:100780002068C0F38810A0FB010106E0084610BDF8
:100790002168C1F38811A1FB00010023FFF710FDC0
:1007A0002168C1F30141491C4900B0FBF1F010BDC3
:1007B000083802400024F40040787D012DE9F84F0C
:1007C000050076D02878DFF8F8B2BE4CC00749D0D3
:1007D000DBF800105846C1F38101012908D00068F8
:1007E000C0F3810002280AD1201D0068400206D50E
:1007F0002068800336D568680028E2D032E0686857
:10080000B0F5803F10D0B0F5A02F206810D020F4B4
:1008100080302060206820F4802020606868A0B1CB
:10082000FFF744FE06460CE0206840F48030F4E711
:1008300040F480202060F7E7FFF738FE801B642833
:1008400073D820688003F7D50CE0FFF72FFE06462B
:1008500005E000BFFFF72AFE801B6428F0D820685F
:100860008003F7D42878DFF8608280074FF0000912
:100870003ED5DBF80010584611F00C0F09D0006887
:10088000C0F3810002280BD18D48001F0068400290
:1008900006D42068800715D5E868012809D111E041
:1008A000E868B8B10120C8F80000FFF7FFFD064670
:1008B00005E002E1FFF7FAFD801B0228C0D820689E
:1008C0008007F7D52068296920F0F80040EAC100C8
:1008D00020600DE0C8F80090FFF7E8FD064604E050
:1008E000FFF7E4FD801B02281FD820688007F7D49B
:1008F0002878000722D5724E744869696C3671B148
:1009000001210160FFF7D2FD074604E0FFF7CEFDAD
:10091000C01B022809D830688007F7D50EE0C0F860
:100920000090FFF7C3FD074605E083E0FFF7BEFD3B
:10093000C01B02287ED830688007F7D4287840078B
:1009400068D5DFF87CA100270AF1380ADAF8000040
:10095000C0000BD4DAF8001041F08051CAF8001042
:10096000DAF80000012700F080500090584E3068FF
:10097000C00510D4306840F480703060FFF796FDF9
:10098000009005E0FFF792FD0099401A022851D827
:100990003068C005F6D54A4EA868683601280FD0E1
:1009A0000528306810D020F001003060306820F059
:1009B00004003060A868B8B1FFF778FD00900FE040
:1009C000306840F00100F4E740F004003060F7E7E1
:1009D000FFF76CFD0099411A41F28830814264D8DA
:1009E00030688007F4D50EE0FFF760FD009007E067
:1009F000FFF75CFD0099411A41F28830814254D8DA
:100A000030688007F4D42FB1DAF8001021F080515B
:100A1000CAF80010A869C0B3DBF80010C1F3810167
:100A200002294AD00228484607D0C8F86000FFF7DC
:100A30003DFD00E039E005463AE04746C8F8600071
:100A4000FFF734FD064604E0FFF730FD801B022867
:100A50002BD820688001F7D4D5E907010843A96A9B
:100A60001C4A490802EB01416A6A41EA82110843C3
:100A700095F82C1040EA01611148001F0160012027
:100A80003866FFF713FD054605E014E0FFF70EFD9D
:100A9000401B022809D820688001F7D50BE000BF71
:100AA000FFF704FD401B022802D90320BDE8F88FA0
:100AB00020688001F4D40020F8E70120F6E7000068
:100AC000083802400038024000004742800E47428A
:100AD000007000400000FFFF10B5401EB0F1807FA5
:100AE00001D3012010BD4FF0E02460610F21601799
:100AF00000F082FB0020A06107202061002010BDD3
:100B00007047704730B590F83820012A20D0012274
:100B100080F83820022380F8393003685C6824F0BC
:100B200070045C6003685C680D682C435C6003685B
:100B30009C6824F080049C6003689C6849680C43AE
:100B40009C6080F83920002180F83810084630BDBC
:100B5000022030BD10B5040003D094F8390010B164
:100B600007E0012010BD002084F83800204600F086
:100B70000DF8022084F83900211D206800F08EFC59
:100B8000012084F83900002010BD000008B500687D
:100B9000B0F1804F12D10A48016841F001010160B3
:100BA0000068002200F00100009011461C20FFF7B1
:100BB000E9FCBDE808401C20FFF7D8BC08BD0000D8
:100BC000403802400168CA6842F00102CA60006809
:100BD000016841F0010101600020704770B50446D2
:100BE00090F83800012817D0012584F838500220E9
:100BF00084F839002068826822F0770222F47F426C
:100C000082600868502837D00DDC202859D005DCD8
:100C100088B3102841D151E0022070BD302853D054
:100C200040283AD13FE060282ED070280BD0B0F594
:100C3000805F03D0B0F5005F2FD110E0206881689D
:100C400021F0070115E0CB68D1E90121206800F00F
:100C500085FC2168886840F0770088601DE0CB68DB
:100C6000D1E90121206800F079FC2068816841F415
:100C70008041816011E01EE0CA684968206800F088
:100C80007FFC5021206806E0CA684968206800F0AF
:100C900088FC6021206800F06BFC84F8395000204B
:100CA00084F8380070BDCA684968206800F068FCA4
:100CB00040212068EFE700212068ECE71021206840
:100CC000E9E720212068E6E730212068E3E7704764
:100CD00070B50446006801694FF00005C9438907F3
:100CE00015D4C168C943890711D4E91E01610120E7
:100CF0002076206880698007204602D0FFF7E7FF52
:100D000004E000F098F8204600F096F82576206878
:100D10000169C943490717D4C168C943490713D4B6
:100D20006FF004010161022020762068806910F4D0
:100D3000407F204602D0FFF7CAFF04E000F07BF8B6
:100D4000204600F079F8257620680169C943090733
:100D500016D4C168C943090712D46FF008010161B4
:100D6000042020762068C0698007204602D0FFF763
:100D7000AEFF04E000F05FF8204600F05DF8257655
:100D800020680169C943C90617D4C168C943C906A7
:100D900013D46FF010010161082020762068C0692B
:100DA00010F4407F204602D0FFF791FF04E000F0EE
:100DB00042F8204600F040F8257620680169C943D2
:100DC000C90708D1C168C943C90704D1891E016197
:100DD000204600F033F820680169C943090609D4A8
:100DE000C168C943090605D46FF08001016120463E
:100DF000FFF786FE20680169C943490609D4C16826
:100E0000C943490605D46FF040010161204600F056
:100E100021F820680169C94389060BD4C168C94318
:100E2000890607D46FF0200101612046BDE87040BB
:100E3000FFF767BE70BD7047704700000068B0F1F3
:100E4000804F03D102490888401C08807047000089
:100E5000000000207047704770B5026804461068B3
:100E6000D168536910F00F0F50D003F0010501F461
:100E7000907635435DD0C20705D0CA0503D5E26B35
:100E800042F00102E263420705D5DA0703D0E26BC4
:100E900042F00202E263820705D5DA0703D0E26B73
:100EA00042F00402E263020705D5DA0703D0E26BE1
:100EB00042F00802E263E26B002A33D0800604D5D8
:100EC000880602D5204600F094FB20684069E16B5B
:100ED000C0F38010090700D428B3204600F07BFB44
:100EE0002068416949061AD5416921F040014161F4
:100EF000606BA0B11B490165606BFFF7EDF900283D
:100F000010D0606B016DBDE870400847830610D5B6
:100F10008B060ED52046BDE8704000F06ABB204627
:100F2000FFF799FF70BD2046FFF795FF0020E063B3
:100F300070BD030606D50B0604D52046BDE87040FB
:100F400000F0F4BC4006F3D54806F1D5D168204640
:100F500021F04001D160202184F8391000F01FF900
:100F600070BD0000C715000870B5040004D094F8E7
:100F70003900002510B106E0012070BD84F838501A
:100F8000204600F023F8242084F839002068C16846
:100F900021F40051C160204600F072FB2068016915
:100FA00021F4904101612068416921F02A014161E9
:100FB0002068C16841F40051C160E563202084F8D5
:100FC000390084F83A00002070BD0000F0B587B009
:100FD000044614216846FFF72BF9384A2768384938
:100FE0000223012403250726364897421ED1344A9E
:100FF0001432176847F010071760126802F01002E9
:1010000005920A6842F001020A60096801F00101D4
:10101000059169028DE87A006946FFF76FF90022B1
:1010200011462520FFF7AEFA252021E0244ADFF8FB
:1010300098C0103267451FD1176847F40037176012
:10104000126802F4003205920A6842F001020A6056
:10105000096801F0010105910C218DE87A006946CB
:10106000FFF74CF9002211462620FFF78BFA2620C5
:10107000FFF77CFA07B0F0BD14488742FAD1106838
:1010800040F480201060106800F48020059008680B
:1010900040F0020008600868694600F00200059010
:1010A0004FF440608DE879000948FFF727F90022E6
:1010B00011462720FFF766FA2720D9E700100140E4
:1010C0003038024000000240004400400048004028
:1010D0000004024090F83A30202B1DD1D1B1CAB1A2
:1010E00090F83830012B17D081628285C2850021AB
:1010F000C163222280F83A2080F8381001684A69DA
:1011000042F001024A610068C16841F49071C16017
:1011100000207047012070470220704710B50C4B2B
:101120000446A3F1C0020B4900F01CF9084B0A4920
:101130004C33A3F1CC02204600F014F9044B2046B6
:101140009833BDE81040A3F1D802044900F00AB971
:101150002C010020001001400044004000480040E5
:1011600090F83930202B18D1A9B1A2B190F83830BD
:10117000012B12D001628284C2840021C16321222A
:1011800080F8392080F838100068C16841F080018B
:10119000C1600020704701207047022070477047EF
:1011A000FEE7000010B586B00024114800940194B9
:1011B0000294039404944FF08041059401600F2140
:1011C000C0E9011440F2E731C0E90314FFF7C2FCA3
:1011D0004FF48050009069460548FFF7FFFC0494E7
:1011E00004A903480594FFF78DFC06B010BD00006C
:1011F00030000020FEE770470907090E002806DAD4
:1012000000F00F0000F1E02080F8141D704700F19D
:10121000E02080F8001470477047000030B5234983
:10122000487A012841D101F5847090F83620432A8C
:101230003BD190F82E2090F83030303A02EBC204C7
:1012400004EB021203EB820390F82F2002EB8204DE
:10125000174A02EB44041C44164B1C6090F82D40C6
:10126000302C01D0012400E000241C7190F83330B0
:1012700090F83540303B03EBC30505EB031304EB5B
:10128000830390F8344004EB840402EB44021344DB
:10129000084A0832136090F83200302801D001204B
:1012A00000E0002010710020487230BD24000020B2
:1012B000F0FDFFFF040000202DE9FC41244E3088A2
:1012C000632843D9311D642408680A25B0FBF4F271
:1012D00004FB1202B0FBF4F3B0FBF5F7B2FBF5F23E
:1012E00005FB1700CDE900201D480A7919A1074622
:1012F00000F062FB82B21A4839460E38A0F84A2044
:10130000CC38FFF72DFF06F10C010868B0FBF4F2B2
:1013100004FB1202B0FBF4F3B0FBF5F4B2FBF5F200
:1013200005FB1400CDE900200D480A794C3009A1D5
:10133000044600F041FB82B2094821463E30A0F845
:101340004A20D838FFF70CFF00203080BDE8FC8130
:10135000000000205325642564256425644346006D
:1013600086010020F0B416460A4600680021144C9D
:10137000904222D10120A070227A2AB106E05A19A7
:101380006D1C82F82C10EDB21E2DF8D31A78532A5A
:1013900000D121721A78462A07D0217A03F12C0055
:1013A0000A54207A401C207201E02172607230469B
:1013B000F0BC01221946FFF78DBEA170F0BC70474A
:1013C000240000207047FFF777B8000010B592B0F6
:1013D00030216846FEF72CFF14210CA8FEF728FFE9
:1013E00014480024016841F080510160006800F059
:1013F000805011901048016841F4804101600068FC
:10140000069400F480401190022000900120039087
:10141000102004906846FFF7D1F90F20CDE90C04A5
:101420000E940F9400210CA81094FFF7DDF812B071
:1014300010BD0000403802400070004010480168B4
:1014400041F4700101600F48016841F00101016041
:101450000C4A00210832116002680B4B1A400260EE
:10146000031D0A4A1A60026822F4802202600548BD
:101470000C3001600249580680390860704700004E
:1014800088ED00E000380240FFFFF6FE1030002437
:101490000148FFF71DBC000030000020F0B50268D5
:1014A000234B244D244E254F254C4FF0804C984221
:1014B00009D0604507D0A84205D0B04203D0B84259
:1014C00001D0A04204D122F0700E4A6842EA0E0216
:1014D00098421BD0604519D0A84217D0B04215D011
:1014E000B84213D0A04211D0164DA8420ED0164DCE
:1014F000A8420BD0154DA84208D0154DA84205D0E2
:10150000144DA84202D0144DA84203D122F44075D4
:10151000CA682A4302608A68C2620A688262984284
:1015200001D0A04201D10969016301214161F0BDEF
:10153000000001400004004000080040000C004092
:1015400000040140004001400044014000480140C7
:1015500000180040001C00400020004010B58468C6
:1015600042EA032224F47F440A432243826010BDEE
:10157000826822F070020A4342F0070181607047DE
:1015800010B5036A046A24F001040462846924F03B
:10159000F00444EA021423F00A020A43846102625E
:1015A00010BD10B5036A23F0100303628369046A57
:1015B00023F4704343EA023224F0A00343EA01110A
:1015C0008261016210BD10B5806B0021C185C184AC
:1015D000FFF741FC10BD0168CA6822F49072CA602E
:1015E00001684A6922F001024A61202180F83A101C
:1015F000704710B590F83A10222901D0022010BD92
:101600008168B1F5805F11D00169002901681FD0A0
:10161000496801F07F03816A4A1C82620B70C18DA8
:10162000491E0904090CC18518D026E00269816AA7
:10163000002A0268526805D0D2B20A80816A491C29
:101640008162ECE7C2F308020A80816A891CF7E72D
:101650004A68816A4B1C83620A70E0E70168CA68C5
:1016600022F49072CA6001684A6922F001024A615C
:10167000202180F83A10FFF751FD002010BD000036
:101680002DE9F04104460068016921F44052E16807
:10169000114301612168C86849F20C6290432369D3
:1016A000A268E5691A4363692B431A430243CA607F
:1016B0002168486920F44072A06910434861E169DB
:1016C0006425B1F5004F9748974A21684FF03208DA
:1016D0003FD0914201D081427CD1FFF72DF800EB41
:1016E000C00101EB001061688900B0FBF1F6FFF763
:1016F00023F800EBC00101EB001061688900B0FB2A
:10170000F1F0B0FBF5F06FF01801484306EB8001F3
:1017100008EB0110B0FBF5F000F0F006FFF70CF855
:1017200000EBC00101EB001061688900B0FBF1F033
:10173000B0FBF5F006EB0016FEF7FEFF00EBC00174
:1017400001EB001061688900B0FBF1F7FEF7F4FFD0
:10175000D2E0914201D081423DD1FEF7EDFF00EB96
:10176000C00101EB001061684900B0FBF1F0B0FB73
:10177000F5F00601FEF7E0FF00EBC00101EB001001
:1017800061684900B0FBF1F7FEF7D6FF00EBC0013E
:1017900001EB001061684900B0FBF1F0B0FBF5F01F
:1017A0006FF01801484307EB800108EBC100B0FB64
:1017B000F5F000F0F80006EB4006FEF7BDFF00EB89
:1017C000C00101EB001061684900B0FBF1F7FEF7C2
:1017D000B3FF3CE055E0FEF79FFF00EBC00101EBDB
:1017E000001061684900B0FBF1F0B0FBF5F00601B4
:1017F000FEF792FF00EBC00101EB001061684900A9
:10180000B0FBF1F7FEF788FF00EBC00101EB001021
:1018100061684900B0FBF1F0B0FBF5F06FF0180122
:10182000484307EB800108EBC100B0FBF5F000F086
:10183000F80006EB4006FEF76FFF00EBC00101EB7E
:10184000001061684900B0FBF1F7FEF765FF00EB9F
:10185000C00101EB001061684900B0FBF1F0B0FB82
:10186000F5F06FF01801484307EB800108EBC10069
:10187000B0FBF5F000F00700216830448860BDE857
:10188000F081FEF749FF00EBC00101EB0010616839
:101890008900B0FBF1F6FEF73FFF00EBC00101EB62
:1018A000001061688900B0FBF1F0B0FBF5F06FF05B
:1018B0001801484306EB800108EB0110B0FBF5F07E
:1018C00000F0F006FEF728FF00EBC00101EB00106E
:1018D00061688900B0FBF1F0B0FBF5F006EB001693
:1018E000FEF71AFF00EBC00101EB001061688900F0
:1018F000B0FBF1F7FEF710FF00EBC00101EB0010A9
:1019000061688900B0FBF1F0B0FBF5F06FF01801F1
:10191000484307EB800108EB0110B0FBF5F000F045
:101920000F00A9E7001401400010014090F83910A1
:10193000212901D0022070478168B1F5805F016ADA
:101940000BD04A1C0262026809785160C18C491EA2
:101950000904090CC1840ED017E009880268C1F39C
:101960000801516001690029016A02D0491C016225
:10197000ECE7891CFBE70168CA6822F08002CA60B4
:101980000068C16841F04001C1600020704700005C
:101990000148FFF761BA00006C0000200148FFF722
:1019A0005BBA0000AC0000200148FFF755BA000008
:1019B000EC000020FEE700000FB4084B10B504A9AE
:1019C00002AA039800F01CF8044602A9002000F0C7
:1019D000B8F9204610BC5DF814FB0000431D000858
:1019E00002E008C8121F08C1002AFAD170477047E8
:1019F000002001E001C1121F002AFBD17047000046
:101A00002DE9FF4F8BB088460546002606E02528C5
:101A10000BD0DDE90D1290476D1C761C287800284C
:101A2000F5D10FB03046BDE8F08F0024A146A246A4
:101A30000122AE4900E0044315F8013F203B02FAC1
:101A400003F00842F7D128782A2810D06FF02F022F
:101A50002878A0F13001092915D809EB890102EB9A
:101A6000410144F0020400EB01096D1CF0E758F855
:101A7000041B5FEA010903D544F40054C9F10009CD
:101A800044F002046D1C28782E2817D115F8010F98
:101A900044F004042A280ED06FF02F022878A0F119
:101AA000300109290AD80AEB8A0102EB410100EB57
:101AB000010A6D1CF2E758F804AB6D1C28786C28FD
:101AC0000FD006DC4C2817D068280DD06A2814D116
:101AD00004E0742810D07A280FD10DE044F40014EB
:101AE0000AE044F4801401E044F44014697881422F
:101AF00002D104F580146D1C6D1C2878692865D00E
:101B000006DC00288DD0632827D0642806D15DE04C
:101B10006E2808D073282AD0752877D0DDE90D12F9
:101B20009047761CE0E0C4F30250022809D0032855
:101B30000DD0D8F8001004280DD00E6008F104086C
:101B4000D2E0D8F80010F217C1E90062F6E7D8F841
:101B500000100E80F2E70E70F0E718F8041B8DF805
:101B6000001000208DF80100EB46012003E058F83A
:101B700004BB4FF0FF3061074FF0000701D40AE0CB
:101B80007F1C57450DDA8742FADB1BF80710002946
:101B9000F6D106E07F1C8742FCDB1BF8071000290A
:101BA000F8D1DDE90D23A9EB07008146214600F0BD
:101BB000B1F83044C61904E0DDE90D121BF8010B41
:101BC00090477F1EF8D22146484688E058F8040B1B
:101BD000C4F302514FF00A0B032900D100B20429CB
:101BE00000D140B2002802DA40422D2102E0210556
:101BF00005D52B218DF82410012104E006E0E10732
:101C000010D02021F6E708AF089113E058F8040B34
:101C1000C4F302514FF00A0B032900D180B204290A
:101C200000D1C0B20021EEE75946FEF70CFB30317F
:101C300007F8011D0028F7D1ADEB070000F1200BDC
:101C4000600702D524F4803401E04FF0010ADA4540
:101C500002DDAAEB0B0000E00020824600EB0B0146
:101C600008980144A9EB01000A90E00306D4DDE9DD
:101C70000D2321460A9800F04DF806444FF0000964
:101C800008E009A911F80900DDE90D12904709F1F2
:101C90000109761C08998945F3DBE0030CD5DDE9E1
:101CA0000D2321460A9800F035F8064404E0DDE9EA
:101CB0000D1230209047761CBAF10001AAF1010AFA
:101CC000F5DC05E0DDE90D1217F8010B9047761CF5
:101CD000BBF10001ABF1010BF4DC0A982146DDE910
:101CE0000D2300F005F806446D1C97E60928010055
:101CF0002DE9F041044600251E461746880404D409
:101D000005E039462020B0476D1C641EF9D52846F1
:101D1000BDE8F0812DE9F041044600251E469046BD
:101D2000C80301D5302700E02027880404D505E04A
:101D300041463846B0476D1C641EF9D52846BDE8BB
:101D4000F0810A68531C0B601070704708B5FEF7ED
:101D5000BBFBFFF73BFB31480024016841F08001E9
:101D60000160016801F080010091016841F001010A
:101D70000160016801F001010091016841F0020178
:101D800001600068264900F00200009025484FF4E9
:101D9000E1350C260160C0E90154C460C0E9044685
:101DA0008461C461FFF7E0F81E481F4940300160BC
:101DB000C0E90154C460C0E904468461C461FFF70E
:101DC000D3F81848194980300160C0E90154C46053
:101DD000C0E904468461C461FFF7C6F8FFF7E2F981
:101DE00010490122C0310F48FFF774F91049012250
:101DF000A1F1CC00FFF76EF90D4901224C31A1F1A0
:101E0000D800FFF767F907483C38FEF7DBFE00BF54
:101E1000FFF704FAFFF750FAFAE700003038024003
:101E2000001001406C0000200044004000480040C9
:101E300078010020000000000000000001020304FF
:101E40000607080900000000010203046C1E0008D8
:101E50000000002024000000E0190008901E000887
:101E600024000020EC050000F0190008000000002C
:101E70000000000000000000000000000000000062
:101E80000100000010000000000000000024F40029
:040000050800018965
:00000001FF
