:020000040800F2
:1000000018060020A1010008E31200088D12000864
:10001000E1120008050300084D1900080000000067
:10002000000000000000000000000000CD140008E7
:100030000703000800000000E5120008CF140008C4
:10004000BB010008BB010008BB010008BB010008A0
:10005000BB010008BB010008BB010008BB01000890
:10006000BB010008BB010008BB010008BB01000880
:10007000BB010008BB010008BB010008BB01000870
:10008000BB010008BB010008BB010008BB01000860
:10009000BB010008BB010008BB010008BB01000850
:1000A000BB010008BB010008BB010008BB01000840
:1000B00099150008BB010008BB010008BB0100083E
:1000C000BB010008BB010008BB010008BB01000820
:1000D000BB010008BB0100083519000841190008E0
:1000E000BB010008BB010008BB010008BB01000800
:1000F000BB010008BB010008BB010008BB010008F0
:10010000BB010008BB010008BB010008BB010008DF
:10011000D9160008BB010008BB010008BB0100089C
:10012000BB010008BB010008BB010008BB010008BF
:10013000BB010008BB010008BB010008BB010008AF
:10014000BB010008BB010008BB010008BB0100089F
:10015000BB010008BB010008BB010008BB0100088F
:10016000BB010008BB010008BB010008BB0100087F
:10017000BB010008BB010008BB0100080000000033
:10018000BB010008BB010008DFF810D000F0A8F8A0
:1001900000480047051D0008AFF300801806002046
:1001A0000648804706480047FEE7FEE7FEE7FEE711
:1001B000FEE7FEE7FEE7FEE7FEE7FEE7451500087F
:1001C000890100082DE9F05F0546002092469B4614
:1001D00088460646814640241BE02846414647465D
:1001E000224600F06CF853465A46C01A914110D38B
:1001F00011461846224600F053F82D1A67EB010805
:100200004F4622460120002100F04AF817EB000972
:100210004E41201EA4F10104DFDC484631462A4647
:100220004346BDE8F09FD2B201E000F8012B491E21
:10023000FBD270470022F6E710B513460A46044683
:100240001946FFF7F0FF204610BD421E12F8013F8D
:10025000002BFBD111F8013B02F8013B002BF9D137
:100260007047034611F8012B00F8012B002AF9D141
:100270001846704730B50B46014600202022012465
:1002800009E021FA02F59D4205D303FA02F5491B64
:1002900004FA02F52844151EA2F10102F1DC30BD7A
:1002A000202A04DB203A00FA02F100207047914036
:1002B000C2F1200320FA03F3194390407047202A2B
:1002C00004DB203A21FA02F00021704721FA02F300
:1002D000D040C2F120029140084319467047000007
:1002E000064C074D06E0E06840F0010394E8070083
:1002F00098471034AC42F6D3FFF74AFF041E0008BB
:10030000241E0008FEE7704790F83510022903D03C
:100310008021416501207047052180F83510006873
:10032000016821F001010160002070472DE9F84FBC
:1003300000224FF0010803254FF00F0E0B6808FA5A
:1003400002F42340A3426ED14E68012E05D0022E46
:1003500003D0112E01D0122E12D186684FEA420C22
:1003600005FA0CF7BE43CF6807FA0CF737438760EE
:100370004668A6430C79C4F30014944034434460A7
:10038000C668570005FA07FC8C6826EA0C06BC40D4
:100390003443C4604C68022C01D0122C13D1D40811
:1003A00000EB8404A346D4F8209054074FEAD46AA3
:1003B0000EFA0AF629EA06090E6906FA0AF646EA6C
:1003C0000906CBF8206006680C7926EA0C0604F0D2
:1003D0000304BC40344304604C68E40065D5364CEB
:1003E000266846F480462660246822F0030604F45A
:1003F00080440094314C3444A446D4F8084896070D
:10040000370F0EFA07F6B4432D4EB04201D1002645
:1004100024E02C4EB04201D101261FE02A4EB0420A
:1004200002D102261AE040E0284EB04201D1032654
:1004300014E0274EB04201D104260FE0254EB04211
:1004400001D105260AE0244EB04201D1062605E07E
:10045000224EB04201D1072600E00826BE402643C6
:10046000CCF808681E4E34684F689C43FF0300D5E3
:100470001C4334601A4C241D26684F689E43BF03FA
:1004800000D51E432660164E083634684F689C43DC
:10049000FF0200D51C433460114E0C3634684F689F
:1004A0009C43BF0200D51C433460521C102AFFF449
:1004B00045AFBDE8F88F00004438024000300140ED
:1004C000000002400004024000080240000C02400C
:1004D000001002400014024000180240001C0240BC
:1004E000003C01400148806870470000180000206F
:1004F000024881680278114481607047180000202A
:100500000B4810B5016841F400710160016841F4C5
:1005100080610160016841F480710160032000F096
:100520006FF8002000F006F800F024F8002010BD5D
:10053000003C024070B50D4D04464FF47A712878A6
:10054000B1FBF0F00A490968B1FBF0F000F004FBE0
:1005500048B9102C07D200222146501E00F030F876
:1005600000206C6070BD012070BD000018000020EC
:10057000140000200A4808B5016841F48041016078
:10058000006800F4804000900548001F016841F0B9
:1005900080510160006800F08050009008BD0000AC
:1005A00044380240002809DB00F01F02012191407D
:1005B0004009800000F1E020C0F800117047000001
:1005C000F0B40E4B1B680C46C3F30223C3F10705BE
:1005D000042D00D90425191D072901D2002300E0AC
:1005E000DB1E012606FA05F1491E214099409E4076
:1005F000761E16403143F0BC01F0BEB90CED00E0B0
:10060000064900F0070208684FF6FF03184040EA69
:100610000220034A10430860704700000CED00E020
:100620000000FA052DE9F0470E46050065D0DFF819
:100630001481D8F80000F7B200F00F00B04207D2E2
:1006400088F80070D8F8000000F00F00B04254D1D4
:1006500028683D4C810712D5400703D5206840F437
:10066000E05020602878000703D5206840F46040FF
:1006700020602068A96820F0F000084320602878F6
:10068000C0072DD0304968680839012812D00228E7
:1006900013D0032811D00968890700292DDA2168B1
:1006A00021F0030101432160FFF71CFF814641F265
:1006B000883A0EE009688903EFE709688901ECE7E9
:1006C000FFF710FFA0EB0901514502D90320BDE857
:1006D000F0872068696800F00C00B0EB810FEFD163
:1006E000D8F80010404601F00F01B14207D9077059
:1006F000006800F00F00B04201D00120E7E7287841
:10070000400705D52068E96820F4E05008432060E0
:100710002878000706D52068296920F4604040EA5F
:10072000C100206000F038F82168084AC1F30311C5
:10073000515CC8400649086006480068FFF7FAFEA9
:100740000020C4E7003C024008380240EC1D0008CD
:10075000140000201C0000200448054900680968B6
:10076000044AC1F38221515CC84070471400002044
:1007700008380240FC1D0008044805490068096863
:10078000044AC1F34231515CC84070471400002054
:1007900008380240FC1D0008154810B5006810F02C
:1007A0000C02144813D01449042A0FD0082A0ED181
:1007B0000F4C241F2268236802F03F025B0207D51A
:1007C0002068C0F38810A0FB010106E0084610BDB8
:1007D0002168C1F38811A1FB00010023FFF7F2FC9F
:1007E0002168C1F30141491C4900B0FBF1F010BD83
:1007F000083802400024F40040787D012DE9F84FCC
:1008000004006ED02078DFF83C93C007A9F10405FE
:100810004AD009F104000168C1F38101012908D01F
:100820000068C0F3810002280AD1D9F80000400214
:1008300006D52868800337D560680028E1D033E00A
:100840006068B0F5803F10D0B0F5A02F286810D0B8
:1008500020F480302860286820F4802028606068B8
:10086000A8B1FFF73FFE06460DE0286840F480304F
:10087000F4E740F480202860F7E700BFFFF732FE7E
:10088000801B642873D828688003F7D50CE0FFF735
:1008900029FE064605E000BFFFF724FE801B642802
:1008A000F0D828688003F7D42078DFF89C8280078E
:1008B0004FF0000A3ED5A348001D016811F00C0F4F
:1008C00008D00068C0F3810002280BD1D9F80000DD
:1008D000400207D42868800716D5E068012800D1B7
:1008E00012E02BE1E068B8B10120C8F80000FFF782
:1008F000F9FD064605E000BFFFF7F4FD801B022866
:10090000C0D828688007F7D52868216920F0F8004A
:1009100040EAC10028600DE0C8F800A0FFF7E2FD42
:10092000064604E0FFF7DEFD801B02281FD828687A
:100930008007F7D42078000722D5824E834861696A
:10094000703671B101210160FFF7CCFD074604E06C
:10095000FFF7C8FDC01B022809D830688007F7D50B
:100960000EE0C0F800A0FFF7BDFD074605E082E0FD
:10097000FFF7B8FDC01B02287DD830688007F7D488
:100980002078400768D5DFF8BCB100270BF13C0B9D
:10099000DBF80000C0000BD4DBF8001041F0805100
:1009A000CBF80010DBF80000012700F08050009029
:1009B000674E3068C00510D4306840F480703060F5
:1009C000FFF790FD009005E0FFF78CFD0099401ABD
:1009D000022850D83068C005F6D55A4EA0686C364B
:1009E00001280FD00528306810D020F001003060B9
:1009F000306820F004003060A068B8B1FFF772FDE5
:100A000000900FE0306840F00100F4E740F004008F
:100A10003060F7E7FFF766FD0099411A41F2883030
:100A2000814266D830688007F4D50EE0FFF75AFDA2
:100A3000009007E0FFF756FD0099411A41F2883017
:100A4000814256D830688007F4D42FB1DBF800100B
:100A500021F08051CBF80010A069C8B33949091DB5
:100A60000968C1F3810102294AD00228504607D003
:100A7000C8F8600000E03CE0FFF734FD04463BE0CE
:100A80004746C8F86000FFF72DFD064605E000BFA9
:100A9000FFF728FD801B02282BD828688001F7D497
:100AA000D4E907010843A16A2A4A490802EB014137
:100AB000626A41EA8211084394F82C1040EA01610D
:100AC000C9F8001001203866FFF70CFD044606E067
:100AD00036E000BFFFF706FD001B022809D8286892
:100AE0008001F7D52CE000BFFFF7FCFC001B0228BB
:100AF00002D90320BDE8F88F28688001F4D41FE0F4
:100B00000128F7D0D9F80000E26900F48001914291
:100B100014D1226A00F03F0191420FD147F6C07113
:100B2000626A0140914209D1A26A00F440319142C7
:100B300004D1E16A00F07060884201D00120D9E759
:100B40000020D7E70438024000004742800E4742A9
:100B5000007000400000FFFF10B5401EB0F1807F24
:100B600001D3012010BD4FF0E02460610F21601718
:100B700000F002FF0020A06107202061002010BDCE
:100B80007047704770B590F83C20012A32D001249C
:100B900080F83C40022280F83D2003685A689D6836
:100BA00022F070060A6832435A60134B02689A4278
:100BB00014D0B2F1804F11D0104B9A420ED0104B8E
:100BC0009A420BD00F4B9A4208D00F4B9A4205D055
:100BD0000E4B9A4202D00E4B9A4204D1496825F03E
:100BE00080031943916080F83D40002180F83C105B
:100BF000084670BD022070BD0000014000040040A6
:100C000000080040000C004000040140004001408A
:100C10000018004010B5040003D094F83D0010B156
:100C200007E0012010BD002084F83C00204600F0C1
:100C30000DF8022084F83D00211D206800F0B2FC70
:100C4000012084F83D00002010BD000008B50068B8
:100C5000B0F1804F12D10A48016841F001010160F2
:100C60000068002200F00100009011461C20FFF7F0
:100C7000A7FCBDE808401C20FFF794BC08BD00009D
:100C8000403802400168CA6842F00102CA60006848
:100C9000816801F00701062903D0016841F00101D4
:100CA00001600020704770B5044690F83C000128B0
:100CB00017D0012584F83C50022084F83D002068BC
:100CC000826822F0770222F47F428260086850280E
:100CD00030D00DDC20284DD005DC98B310283BD156
:100CE00048E0022070BD302844D0402834D139E09B
:100CF000602828D0702806D0B0F5805F2CD0B0F5E1
:100D0000005F29D10AE0CB68D1E90121206800F019
:100D1000ADFC2068816841F0770109E0CB68D1E93A
:100D20000121206800F0A2FC2068816841F4804124
:100D3000816011E0CA684968206800F0A9FC502170
:100D4000206807E016E0CA684968206800F0B1FC36
:100D50006021206800F094FC84F83D50002084F865
:100D60003C0070BDCA684968206800F091FC4021D1
:100D70002068EFE7226801461046EBE7704770B540
:100D80000446006801694FF00005C943890715D47E
:100D9000C168C943890711D4E91E01610120207788
:100DA000206880698007204602D0FFF7E7FF04E053
:100DB00000F098F8204600F096F825772068016941
:100DC000C943490717D4C168C943490713D46FF011
:100DD00004010161022020772068806910F4407FBF
:100DE000204602D0FFF7CAFF04E000F07BF820465F
:100DF00000F079F8257720680169C943090716D4FE
:100E0000C168C943090712D46FF0080101610420C9
:100E100020772068C0698007204602D0FFF7AEFF28
:100E200004E000F05FF8204600F05DF825772068C8
:100E30000169C943C90617D4C168C943C90613D497
:100E40006FF010010161082020772068C06910F45C
:100E5000407F204602D0FFF791FF04E000F042F807
:100E6000204600F040F8257720680169C943C9078A
:100E700008D1C168C943C90704D1891E0161204650
:100E800000F032F820680169C943090609D4C16835
:100E9000C943090605D46FF0800101612046FFF7C0
:100EA0006FFE20680169C943490609D4C168C94376
:100EB000490605D46FF040010161204600F020F89A
:100EC00020680169C94389060BD4C168C9438906F2
:100ED00007D46FF0200101612046BDE87040FFF7A4
:100EE00050BE70BD704770470068B0F1804F03D1AD
:100EF00002490888401C088070470000000000205C
:100F00007047704770B5026804461068D16853692D
:100F100010F00F0F52D003F0010501F490762E432C
:100F20005FD0C20705D0CA0503D5E26B42F00102CB
:100F3000E263420705D5DA0703D0E26B42F0020212
:100F4000E263820705D5DA0703D0E26B42F00402C0
:100F5000E263020707D501F020022A4303D0E26BC7
:100F600042F00802E263E26B002A33D0800604D527
:100F7000880602D5204600F0CBFB20684069E16B73
:100F8000C0F38010090700D428B3204600F0B2FB5C
:100F90002068416949061AD5416921F04001416143
:100FA000606BA0B11B490165606BFFF7ADF90028CC
:100FB00010D0606B016DBDE870400847830610D506
:100FC0008B060ED52046BDE8704000F0A1BB204640
:100FD000FFF797FF70BD2046FFF793FF0020E06307
:100FE00070BD030606D50B0604D52046BDE870404B
:100FF00000F06EBC4006F3D54806F1D5D168204616
:1010000021F04001D160202184F8391000F03DF931
:1010100070BD0000E516000870B5040004D094F817
:101020003900002510B106E0012070BD84F8385069
:10103000204600F023F8242084F839002068C16895
:1010400021F40051C160204600F0AEFB2068016928
:1010500021F4904101612068416921F02A01416138
:101060002068C16841F40051C160E563202084F824
:10107000390084F83A00002070BD0000F0B587B058
:10108000044614216846FFF7D5F83D4A3B4E2768D1
:1010900000243B49103A032302253A48B74220D1A5
:1010A0000C6844F400240C60096801F400210591E7
:1010B000116841F001011160116801F00101059111
:1010C0000121CDE90213CDE90035082104916946DB
:1010D000FFF72CF9002211463420FFF771FA342073
:1010E00023E0DFF8A4C00726674522D10F6847F444
:1010F00000370F60096801F400310591116841F073
:10110000010111601168CDE9024301F0010105916F
:101110000C21CDE9001504966946FFF707F9002276
:1011200011462620FFF74CFA2620FFF73BFA07B0BE
:10113000F0BD16488742FAD1086840F48020086064
:10114000086800F480200590106840F002001060EC
:101150001068CDE9024300F0020005904FF44060B2
:10116000CDE90005694604960948FFF7DFF800223B
:1011700011462720FFF724FA2720D6E7004C00402D
:101180004038024000000240004400400048004057
:101190000004024090F83A30202B22D1F9B1F2B18C
:1011A00090F83830012B1CD081628285C2850021E5
:1011B000C163222280F83A2080F838100168CA689A
:1011C00042F48072CA6001684A6942F001024A61D1
:1011D0000068C16841F02001C16000207047012013
:1011E000704702207047000070B50446006813493C
:1011F0000026134D884206D105F14C0101F1C000D3
:1012000000F03AF900E0AE700E492068884206D13D
:101210000B498C3101F1CC0000F02EF900E0AE70EA
:1012200009492068884207D10549BDE87040CC31A2
:1012300001F1D80000F020B9AE7070BD004C004044
:1012400024000020004400400048004090F839305D
:10125000202B18D1A9B1A2B190F83830012B12D0AF
:1012600001628284C2840021C163212280F8392076
:1012700080F838100068C16841F08001C16000202A
:10128000704701207047022070477047FEE700005A
:1012900010B586B000241148009401940294039480
:1012A00004944FF08041059401600F21C0E90114BE
:1012B00040F2E731C0E903148461FFF7ABFC4FF45F
:1012C0008050009069460548FFF7EDFC049404A99E
:1012D00002480594FFF756FC06B010BD3000002010
:1012E000FEE770477047000030B52349487A01286F
:1012F00041D101F5867090F83620432A3BD190F811
:101300002E2090F83030303A02EBC20404EB021287
:1013100003EB820390F82F2002EB8204174A02EBC2
:1013200044041C44164B1C6090F82D40302C01D016
:10133000012400E000241C7190F8333090F835400F
:10134000303B03EBC30505EB031304EB830390F879
:10135000344004EB840402EB44021344084A08328C
:10136000136090F83200302801D0012000E0002006
:1013700010710020487230BD24000020F0FDFFFFF6
:10138000040000202DE9FC41354F3888632864D9DA
:101390003A1D642510680A26B0FBF5F105FB110122
:1013A000B0FBF5F3B0FBF6F4B1FBF6F106FB14006D
:1013B000CDE900102E4812792AA1804600F0C8FA23
:1013C0002B4C82B20E3C4146A4F84A20A4F1CC003A
:1013D000FFF73CFF07F10C010868B0FBF5F205FBD5
:1013E0001202B0FBF5F3B0FBF6F5B2FBF6F206FB2A
:1013F0001500CDE900200A7904F15A0019A105462B
:1014000000F0A6FA82B204F14C002946A0F84A2066
:10141000D838FFF71BFF04F17801A1F14C00054615
:10142000FEF713FF462084F8380005202118401CE1
:1014300091F82D2081F82C200B28F7DB0C492D206A
:1014400084F831002931481EFEF70BFF1E22294681
:101450000848FFF7FBFE00203880BDE8FC81000053
:10146000000000205325642564256425644346005C
:101470008A01002070000020F0B4134A01250C46B8
:101480009570117A002329B106E04618491C86F8A8
:101490002C30C9B21E29F8D30178532900D1137218
:1014A0000178462907D0157A00F12C03E954117A06
:1014B000491C117201E01372557201462046F0BCBE
:1014C0000122FFF767BE0000240000207047FFF7ED
:1014D0000FB8000010B592B030216846FEF7AAFEA2
:1014E00014210CA8FEF7A6FE14480024016841F060
:1014F00080510160006800F0805011901048016830
:1015000041F4804101600068069400F4804011902D
:101510000220009001200390102004906846FFF7FD
:101520006DF90F20CDE90C040E940F9400210CA846
:101530001094FFF777F812B010BD00004038024059
:10154000007000401048016841F4700101600F48CC
:10155000016841F0010101600C4A0021083211606C
:1015600002680B4B1A400260031D0A4A1A600268A7
:1015700022F48022026005480C30016002495806BE
:10158000803908607047000088ED00E000380240B4
:10159000FFFFF6FE103000240148FFF7F0BB00000B
:1015A00030000020F0B50268254C264D264E274F0E
:1015B000274B4FF0804CA04209D0604507D0A8428D
:1015C00005D0B04203D0B84201D0984204D122F0F5
:1015D000700E4A6842EA0E02A0421BD0604519D044
:1015E000A84217D0B04215D0B84213D0984211D0BB
:1015F000184DA8420ED0184DA8420BD0174DA84246
:1016000008D0174DA84205D0164DA84202D0164D5D
:10161000A84203D122F44075CA682A434D6922F0DA
:1016200080022A4302608A68C2620A688262A0421B
:1016300001D0984201D10969016301214161F0BDE6
:10164000000001400004004000080040000C004081
:1016500000040140004001400044014000480140B6
:1016600000180040001C00400020004010B58468B5
:1016700042EA032224F47F440A432243826010BDDD
:10168000826822F070020A4342F0070181607047CD
:1016900010B5036A046A24F001040462846924F02A
:1016A000F00444EA021423F00A020A43846102624D
:1016B00010BD10B5036A23F0100303628369046A46
:1016C00023F4704343EA023224F0A00343EA0111F9
:1016D0008261016210BD00000148FFF713BC0000E9
:1016E0007000002010B5806B0021C185C184FFF718
:1016F00008FC10BD0168CA6822F49072CA600168D3
:101700004A6922F001024A61202180F83A107047AC
:1017100010B590F83A10222901D0022010BD81683E
:10172000B1F5805F11D00169002901681FD04968B7
:1017300001F07F03816A4A1C82620B70C18D491ED1
:101740000904090CC18518D02BE00269816A002ABE
:101750000268526805D0D2B20A80816A491C81624F
:10176000ECE7C2F308020A80816A891CF7E74A683D
:10177000816A4B1C83620A70E0E70168CA6822F044
:101780002002CA600168CA6822F48072CA600168D7
:101790004A6922F001024A61202180F83A10FFF7DD
:1017A00023FD002010BD00002DE9F0410446006833
:1017B0000169E26821F44051114301612169A06887
:1017C000E26908436169114308432168CA6849F224
:1017D0000C639A430243CA6020684169A26921F4FC
:1017E000407111434161E069192764253226B0F543
:1017F000004F354A354920684FF0000806D088422E
:1018000001D0904236D1FEF7B7FF35E0884201D0D3
:10181000904202D1FEF7B0FF01E0FEF79DFF616844
:101820004A18A0FB070148EB0803FEF7CBFC014672
:10183000B0FBF5F00201B1FBF5F06FF0180358436F
:1018400001EB800006EBC000B0FBF5F000F0F80003
:1018500002EB4002B1FBF5F0584301EB800006EBD0
:10186000C000B0FBF5F000F007002168104488606C
:10187000BDE8F081FEF770FF61688B0F8A00A0FB66
:101880000701FEF79FFC0146B0FBF5F06FF0180270
:10189000504301EB800006EB0010B0FBF5F000F0C8
:1018A000F002B1FBF5F002EB0012B1FBF5F06FF0C6
:1018B0001803584301EB800006EB0010B0FBF5F075
:1018C00000F00F00D1E700000014014000100140BB
:1018D00090F83910212901D0022070478168B1F5B4
:1018E000805F016A0BD04A1C02620268097851606D
:1018F000C18C491E0904090CC1840ED017E0098867
:101900000268C1F30801516001690029016A02D02F
:10191000491C0162ECE7891CFBE70168CA6822F0F8
:101920008002CA600068C16841F04001C1600020C7
:10193000704700000148FFF7E5BA0000B000002042
:101940000148FFF7DFBA0000F0000020FEE70000CA
:101950000FB4084B10B504A902AA039800F02CF8A4
:10196000044602A9002000F0C8F9204610BC5DF82A
:1019700014FB0000FB1C00080907090E002804DB0B
:1019800000F1E02080F80014704700F00F0000F133
:10199000E02080F8141D704702E008C8121F08C13B
:1019A000002AFAD170477047002001E001C1121FE0
:1019B000002AFBD1704700002DE9FF4F8BB088460D
:1019C0000546002606E025280BD0DDE90D129047DC
:1019D0006D1C761C28780028F5D10FB03046BDE884
:1019E000F08F0024A146A2460122AE4900E0044344
:1019F00015F8013F203B02FA03F00842F7D128789E
:101A00002A2810D06FF02F022878A0F13001092980
:101A100015D809EB890102EB410144F0020400EB07
:101A200001096D1CF0E758F8041B5FEA010903D5B2
:101A300044F40054C9F1000944F002046D1C2878F4
:101A40002E2817D115F8010F44F004042A280ED0CF
:101A50006FF02F022878A0F1300109290AD80AEB8B
:101A60008A0102EB410100EB010A6D1CF2E758F814
:101A700004AB6D1C28786C280FD006DC4C2817D0DE
:101A800068280DD06A2814D104E0742810D07A2870
:101A90000FD10DE044F400140AE044F4801401E096
:101AA00044F440146978814202D104F580146D1C1D
:101AB0006D1C2878692865D006DC00288DD0632845
:101AC00027D0642806D15DE06E2808D073282AD07C
:101AD000752877D0DDE90D129047761CE0E0C4F35D
:101AE0000250022809D003280DD0D8F8001004288D
:101AF0000DD00E6008F10408D2E0D8F80010F217FB
:101B0000C1E90062F6E7D8F800100E80F2E70E7027
:101B1000F0E718F8041B8DF8001000208DF8010084
:101B2000EB46012003E058F804BB4FF0FF3061079B
:101B30004FF0000701D40AE07F1C57450DDA8742B9
:101B4000FADB1BF807100029F6D106E07F1C87425C
:101B5000FCDB1BF807100029F8D1DDE90D23A9EB08
:101B600007008146214600F0B1F83044C61904E070
:101B7000DDE90D121BF8010B90477F1EF8D22146BC
:101B8000484688E058F8040BC4F302514FF00A0BA2
:101B9000032900D100B2042900D140B2002802DAA2
:101BA00040422D2102E0210505D52B218DF824107E
:101BB000012104E006E0E10710D02021F6E708AF9C
:101BC000089113E058F8040BC4F302514FF00A0BCC
:101BD000032900D180B2042900D1C0B20021EEE770
:101BE0005946FEF747FB303107F8011D0028F7D1B1
:101BF000ADEB070000F1200B600702D524F4803420
:101C000001E04FF0010ADA4502DDAAEB0B0000E02B
:101C10000020824600EB0B0108980144A9EB01006B
:101C20000A90E00306D4DDE90D2321460A9800F06E
:101C30004DF806444FF0000908E009A911F8090021
:101C4000DDE90D12904709F10109761C08998945D3
:101C5000F3DBE0030CD5DDE90D2321460A9800F003
:101C600035F8064404E0DDE90D1230209047761C7B
:101C7000BAF10001AAF1010AF5DC05E0DDE90D1277
:101C800017F8010B9047761CBBF10001ABF1010B7B
:101C9000F4DC0A982146DDE90D2300F005F806443E
:101CA0006D1C97E6092801002DE9F0410446002546
:101CB0001E461746880404D405E039462020B04764
:101CC0006D1C641EF9D52846BDE8F0812DE9F04170
:101CD000044600251E469046C80301D5302700E083
:101CE0002027880404D505E041463846B0476D1CDE
:101CF000641EF9D52846BDE8F0810A68531C0B60C4
:101D00001070704708B5FEF7FBFBFFF7E3FB3148A7
:101D10000024016841F080010160016801F0800148
:101D20000091016841F001010160016801F00101C9
:101D30000091016841F0020101600068264900F04D
:101D40000200009025484FF4E1350C260160C0E9FF
:101D50000154C460C0E904468461C461FFF75CF9C2
:101D60001E481F4940300160C0E90154C460C0E909
:101D700004468461C461FFF74FF9FFF789FA1748F9
:101D8000184940380160C0E90154C460C0E9044604
:101D90008461C461FFF740F9104901228031A1F14B
:101DA000C000FFF7F7F90D490122CC310B48FFF7CE
:101DB000F1F90D490122A1F1D800FFF7EBF907482D
:101DC0008038FEF75FFF00BFFFF78EFAFFF7DAFA01
:101DD000FAE700003038024000440040B000002024
:101DE00000480040004C0040C801002000000000F6
:101DF00000000000010203040607080900000000BB
:101E000001020304241E000800000020240000003A
:101E100098190008481E000824000020F40500005E
:101E2000A8190008000000000000000000000000E9
:101E300000000000000000000024F4000100000089
:081E400010000000000000008A
:040000050800018965
:00000001FF
